:020000040800F2
:10000000F06A002069020008794800080D3F0008E6
:10001000D94700089D0C0008F951000800000000B5
:10002000000000000000000000000000A90100081E
:10003000C10D00080000000005020008A1480008EA
:10004000830200088302000883020008830200087C
:10005000830200088302000883020008830200086C
:10006000830200088302000883020008830200085C
:10007000C10C000883020008830200088302000804
:100080008302000883020008D108000883020008E8
:10009000A10C000883020008830200088302000804
:1000A000830200088302000883020008830200081C
:1000B000830200088302000883020008830200080C
:1000C0008302000883020008830200087D480008BC
:1000D00083020008830200088302000883020008EC
:1000E00083020008830200088302000883020008DC
:1000F000830200085D4900088302000883020008AB
:1001000083020008830200088302000883020008BB
:1001100083020008830200088302000883020008AB
:10012000CD0C0008D90C0008E50C0008F10C000803
:10013000830200088302000883020008830200088B
:10014000AD0C000883020008830200088302000847
:10015000FD0C0008830200088302000883020008E7
:10016000830200088302000883020008830200085B
:1001700083020008830200088302000800000000D8
:100180008302000883020008DFF818D000F094FA18
:1001900000F0C0F800480047855B0008AFF300801E
:1001A00000F002FBF06A00202C4B19680868B0E8E8
:1001B000F04F80F30988BFF36F8F4FF0000080F39A
:1001C000118870470000000008480068006880F34C
:1001D00008884FF0000080F3148862B661B6BFF360
:1001E0004F8FBFF36F8F00DF00BF00BF08ED00E04F
:1001F000DFF80C00016841F470010160704700BF36
:1002000088ED00E0EFF30980BFF36F8F134B1A689E
:100210001EF0100F08BF20ED108A20E9F04F10608B
:1002200009B44FF0500080F31188BFF34F8FBFF334
:100230006F8F06F0DFFB4FF0000080F3118809BCE0
:1002400019680868B0E8F04F1EF0100F08BFB0EC56
:10025000108A80F30988BFF36F8F70478C000020ED
:10026000EFF30580704700000648804706480047C6
:10027000FEE7FEE7FEE7FEE7FEE7FEE7FEE7FEE756
:10028000FEE7FEE74D490008890100082DE9F05F0F
:100290000546002092469B468846064681464024F5
:1002A0001BE0284641464746224600F000F95346E7
:1002B0005A46C01A914110D311461846224600F002
:1002C000E7F82D1A67EB01084F462246012000216E
:1002D00000F0DEF817EB00094E41201EA4F10104E6
:1002E000DFDC484631462A464346BDE8F09FD2B29D
:1002F00001E000F8012B491EFBD270470022F6E70F
:1003000010B513460A4604461946FFF7F0FF20468B
:1003100010BD000070B5054C054D03E02068204479
:100320008047241DAC42F9D170BD00008C750008D7
:10033000A87500082DE9F04D81EA030404F0004B94
:1003400021F0004514464FF0000A23F0004150EA26
:10035000050220D054EA01021DD0C5F30A57024617
:10036000C5F31303C1F31300C1F30A5640F480151B
:1003700043F48013A7EB0608101BD64608F2FD389D
:1003800073EB050002D308F1010801E092185B410C
:10039000B8F1000F03DA00200146BDE8F08D00201F
:1003A0004FF48011064684460EE0171B73EB0507D9
:1003B00005D3121B63EB050306434CEA010C490805
:1003C0004FEA300092185B4150EA0107EDD152EA42
:1003D000030012D082EA040083EA0501084305D035
:1003E000101BAB4106D20122002306E000224FF091
:1003F000004302E06FF0010253101AEB06004CEBD1
:10040000085110EB0A0041EB0B01BDE8F04D00F084
:10041000BEB80EB540F2334102910021CDE9001182
:100420000A460B4600F0C2F803B000BD70B5C1F338
:100430000A5201F000450024C1F3130140F2FF33DA
:1004400041F480119A4201DA002070BD40F233433A
:100450009A42A2F2334203DC524200F028F800E054
:1004600090402C43F1D0404270BD00F0004230F08B
:1004700000400AD0C10D01F56071C0F3160042EAD8
:100480000151C208400711437047002001467047E0
:10049000202A04DB203A00FA02F100207047914044
:1004A000C2F1200320FA03F3194390407047202A39
:1004B00004DB203A21FA02F00021704721FA02F30E
:1004C000D040C2F1200291400843194670470029EC
:1004D000A8BF7047401C490008BF20F001007047CA
:1004E00010B4B0FA80FC00FA0CF050EA010404BF2A
:1004F00010BC704749B1CCF1200421FA04F411FA80
:100500000CF118BF012121430843A3EB0C01CB1DC3
:100510004FEA00614FEA102042BF002010BC704734
:1005200000EBC35010440029A4BF10BC7047401C0E
:10053000490008BF20F0010010BC7047F0B400F083
:10054000004221F0004120F00040CE0DC30DC1F368
:10055000160141F40001C0F316004C42154640F468
:100560000000761E09E010EB440002D582F0004244
:1005700040428842F7D840005B1EB342F9DA18B116
:10058000F0BC0021FFF7ACBF2846F0BC704710B5A7
:10059000141E73F1000408DA401C41F100019218A6
:1005A0005B411A4301D120F0010010BD2DE9F04D4F
:1005B00092469B4611B1B1FA81F202E0B0FA80F2A4
:1005C00020329046FFF764FF04460F4640EA0A00D7
:1005D00041EA0B0153465A46084313D0114653EAE9
:1005E000010019D0C8F140025046FFF760FF0546F0
:1005F0000E46504659464246FFF74AFF084305D08B
:10060000012004E020463946BDE8F08D0020054376
:1006100046EAE0762C4337430A986305E40AA0EBE8
:1006200008000022FD0A44EA47540A3002D500209F
:100630000146E9E7010510196941DDE9084500199E
:100640006941BDE8F04DA2E7AFF3008010B500F0BE
:100650000EF8016919B100220261884701E0806843
:100660008047AFF30080000010B5AFF3008070B595
:1006700000F058F804680546A4B9202005F0CCFA2B
:10068000040011D0094900202C60C4E90001084988
:10069000A1602073206160610649A06109B100F08A
:1006A00060F8E061204670BDAFF3008000000000FC
:1006B0006906000800000000064C074D06E0E068EF
:1006C00040F0010394E8070098471034AC42F6D399
:1006D000FFF75EFD6C7500088C75000810B5441AB4
:1006E0000346944209D28418114403E011F8013DF5
:1006F00004F8013D521EF9D210BD40EA0104A407DE
:1007000003D009E010C9121F10C3042AFAD203E073
:1007100011F8014B03F8014B521EF9D210BD000035
:10072000034870470248001D011F8860001D704784
:10073000440100202DE9F041074615460E461020E1
:1007400005F06AFA04000AD06760C4E9026500F0A7
:1007500027F80168216004600020BDE8F0810120D5
:10076000FBE710B5882005F057FA002801D00021DA
:10077000017010BD802902D808B1017809B10020AC
:100780007047012100F8081B704718B100F10802FA
:10079000914201D000207047002101707047000095
:1007A00000487047500100202DE9F0410646FFF750
:1007B000F7FF8046454613E016B1E068B0420ED11F
:1007C00020682860D4E90101D8F8007088472046E5
:1007D00005F0B0F9D8F80000B842EBD100E02546AA
:1007E0002C68002CE8D1BDE8F081704770B58C18FA
:1007F00010F8015B15F0070301D110F8013B2A1135
:1008000006D110F8012B03E010F8016B01F8016B21
:100810005B1EF9D12B0705D40023521E0DD401F81D
:10082000013BFAE710F8013BCB1A921C03E013F8E6
:10083000015B01F8015B521EF9D5A142D8D300201B
:1008400070BD10B50146806B026C12F0500F05D0E0
:10085000026CD20626D500F080FB10BD016C41F47D
:100860000071016401688A6812F0405F17D1027E4E
:10087000AAB9CA6A12F4700F02D08A6852050ED45F
:100880004A6822F020024A60016C21F48071016400
:10089000016CC90403D4016C41F00101016400F052
:1008A00043FB10BD806BC26CBDE81040084610478A
:1008B00010B5806B40210164416C41F0040141643A
:1008C00000F04BFB10BD10B5806B00F045FB10BD78
:1008D000014800F043BB000054010020464910B518
:1008E0004A6822F440324A604A6843681A434A60C0
:1008F00001684A6822F480724A6001684A680369A4
:1009000042EA03224A6001684A6822F040724A6063
:1009100001684A6883681A434A6001688A6822F459
:1009200000628A6001688A68C3681A438A60816AC3
:100930006FF07062D14201688A6822F070628A604A
:1009400001688A680CD0836A1A438A6001688A68E1
:1009500022F040528A6001688A68C36A1A4301E043
:1009600022F040528A6001688A6822F002028A609E
:1009700001688A68037E42EA43028A6090F8201088
:10098000002901684A680FD042F400624A60016899
:100990004A6822F460424A6001684A68174C436A18
:1009A00004EB43331A4301E022F400624A60016819
:1009B000CA6A22F47002CA620168CA6A838B104C48
:1009C00004EB03531A43CA6201688A6822F4007276
:1009D0008A6001688A6890F8303042EA43228A606F
:1009E00001688A6822F480628A6001688A684069C6
:1009F00042EA8020886010BD0023014000E0FFFF34
:100A00000000F0FF10B5052001F06AFABDE81040C3
:100A100001220249024800F0B9BB00000800002092
:100A20005401002010B50821034802F049FF024993
:100A300000200968C86310BDF404002010B5B5EEAD
:100A4000C00A154CF1EE10FA2DED028B01D10020F9
:100A50001DE010EE100AFFF708FD41EC180B01F045
:100A6000BDFEFFF7D6FC9FED0D1B53EC112BFFF7DE
:100A700061FC53EC182BFFF75DFCFFF7D7FC2168F6
:100A8000401E886221686D20C862E06036202168BF
:100A9000C863BDEC028B10BDF40400200000000010
:100AA00000805B4000B58BB0002002900390049062
:100AB0000590069001200790089069461B4800F0B9
:100AC000B3FC08B100F07DF9184801F009F808B14D
:100AD00000F077F90221154800F025FC08B100F07C
:100AE00070F90121114800F01EFC08B100F069F90D
:100AF00069460F4800F098FC08B100F062F90C4814
:100B000000F0EEFF08B100F05CF90221084800F0A7
:100B10000AFC08B100F055F90121054800F003FC7A
:100B2000002801D000F04DF90BB000BDFC01002001
:100B3000240200203EB5002408230094CDE90123BF
:100B40000B462246214604F091FC3EBD401E084A59
:100B5000C0B202EB0010027B052A07D2436843F8BB
:100B60002210017B491C017300207047012070474F
:100B70002800002010B50021084802F0C7FB04211E
:100B8000064802F0C3FB0821044802F0BFFBBDE8A1
:100B900010400C21014802F0B9BB0000AC04002059
:100BA00010B50021064802F08BFE0421044802F033
:100BB00087FEBDE810400821014802F081BE000018
:100BC0003C050020DFED0D1A0D4820EE210A0268D9
:100BD000BCEEC00A10EE101AD16320EEA10A026822
:100BE000BCEEC00A10EE101A916321EE210A0068D3
:100BF000BCEEC00A10EE101A4163704700FF7F4739
:100C00003C05002010B500210E4802F059FE0421D9
:100C10000C4802F055FE08210A4802F051FE0C2152
:100C2000084802F04DFE0021074802F049FE042169
:100C3000054802F045FEBDE810400821024802F0D8
:100C40003FBE000064040020840500202DE9F0412F
:100C500000240C4D27460C4E4FF4807804E000BF72
:100C600055F8240080F83C7006EB042155F8240068
:100C7000424602F0A9FE0028F2D1641C032CF3DBEB
:100C8000BDE8F08154000020700E0020024A02EB03
:100C9000800040F8041C7047100E0020FEE70000A2
:100CA000014800F0D2BC0000FC010020014800F027
:100CB000CCBC00002402002000487047D413002060
:100CC000014800F09BBF000040070020014800F0F1
:100CD00095BF00009C010020014800F08FBF00007C
:100CE000A0070020014800F089BF0000A4030020F5
:100CF000014800F083BF000004040020014800F018
:100D00007DBF0000E006002001681823CAB2103A37
:100D1000B2FBF3F2054B6FF30901032A9B5CC36539
:100D200000D9091D81650846704700001475000848
:100D300010B5014600208B698A6A4FF0C07453B128
:100D4000B3F5005F15D072B1012A0CD0022A0AD087
:100D5000032A09D104E01AB1012A06D0022A03D1DC
:100D6000C96AC90100D5012010BDC96AA142FAD0E3
:100D700010BD002AF7D0012AF2D0022AF3D0032AAC
:100D8000F3D010BD30B50468256825F480252560B2
:100D9000046863608368402B036803D0996000682F
:100DA000C26030BD9A600068C16030BD0149082052
:100DB000FFF76CBFF954000800487047701100201D
:100DC000704772B6FEE700000249C0EB001001EB6D
:100DD00000107047281500207047000078B50024E7
:100DE000009490F83C20012A19D0012280F83C2080
:100DF0000A6807230568092A13D9EE680A3A02EB44
:100E0000420293409E43EE600B788A680A3B03EBF4
:100E100043039A400368DD682A43DA6010E0022049
:100E200078BD2E6902EB420293409E432E610B78FF
:100E30008A6803EB43039A4003681D692A431A61D9
:100E40004A681F23072A13D205686E6B521E02EBF5
:100E5000820293409E436E630B790A885B1E92B2B6
:100E600003EB83039A4003685D6B2A435A6327E0D0
:100E700005680D2A12D22E6BD21F02EB820293401C
:100E80009E432E630B790A88DB1F92B203EB830328
:100E90009A4003681D6B2A431A6311E0EE6A0D3A0B
:100EA00002EB820293409E43EE620B790A880D3B6F
:100EB00092B203EB83039A400368DD6A2A43DA6245
:100EC000164B0568144A9D4206D10D68122D03D1B8
:100ED000556845F48005556005689D4218D10B683A
:100EE000102B01D0112B13D1536843F4000353602E
:100EF000096810290CD10A490A4A0968B1FBF2F1C4
:100F000001EB8101490000E0491E00910029FBD15D
:100F100080F83C40002078BD0023014000200140C3
:100F20008800002040420F00084988420DD108483F
:100F3000DFED080A008800EE100A0548B8EE400A06
:100F4000001D20EE200A80ED000A704754010020A9
:100F5000080000206740533A7047704770B5044658
:100F600000680668456816F0020F05F020012AD0D7
:100F700049B3216CC90603D4216C41F4007121648A
:100F8000816811F0405F17D1217EA9B9C16A11F4BF
:100F9000700F02D0816849050ED4416821F020010C
:100FA0004160206C20F480702064206CC00403D465
:100FB000206C40F0010020642046FFF7B5FF216857
:100FC0006FF01200086016F0040F05F0800132D0B7
:100FD00089B3206CC00603D4206C40F40050206418
:100FE0002068816811F4401F1ED1816B11F4401FED
:100FF00002D08168490517D44168490514D4816835
:1010000011F0405F10D1217E71B9416821F080015B
:101010004160206C20F480502064206CC00503D413
:10102000206C40F0010020642046FFF7D5FE2168C7
:101030006FF00C00086016F0010F05F040010FD0B2
:1010400071B120680068C0070AD0206C40F480307D
:101050002064204600F043F821686FF0010008602A
:1010600016F0200F05F080610ED000290CD0606CC6
:1010700040F00200606420686FF0200505602046A3
:10108000FFF76BFF2068056070BD70B504004FF07E
:10109000000503D0206C002610B107E0012070BDD0
:1010A000204600F01DF8666484F83C60206CC006A1
:1010B00010D4206C20F4885040F0020020642046B8
:1010C000FFF70CFC6664206C20F0020040F0010089
:1010D000206400E0012584F83C60284670BD70471C
:1010E000F0B587B0064614216846FFF707F9224994
:1010F000306888423DD121480025016841F4806173
:101100000160006800F4806005901C481438016894
:1011100041F02001016000684FF4806700F020007A
:10112000009705900320CDE901056946144800F0B9
:10113000E9FE154C134820608005C4E901058013C1
:10114000E560C4E904708000A0618011C4E907056E
:101150002046656200F022FE08B1FFF732FEB4635C
:10116000002205211220A66301F0A0F9122001F04F
:101170008FF907B0F0BD0000002201404438024062
:1011800000140240106402409C010020F8B504469F
:1011900000200E46009094F83C10012907D0012150
:1011A00084F83C1021688B68DB0702D011E0022034
:1011B000F8BD8B6843F001038B604049404B0968E0
:1011C000B1FBF3F101EB410100E0491E0091002960
:1011D000FBD121688B68DB0503D58B6823F4807312
:1011E0008B6021688B68DB075DD0236C40F2016562
:1011F000AB4343F4807323644968490505D5216CEA
:1012000021F4005141F480512164216CC90404D5BA
:10121000616C21F00601616400E0606484F83C00C8
:10122000A16B2948274DC863A16B28480864A16BAE
:101230002748C86421686FF0220008602068416870
:1012400041F0806141602068816841F48071816073
:101250002168134632464C31A06B00F009FE6868E5
:101260001C49C006206806D0884224D1816811F04C
:10127000405F13D01FE08842F8D0174A904203D154
:10128000D1F80423D206F1D0144A904213D1D1F8F8
:10129000041301F01F011029E8D30CE0816841F02C
:1012A0008041816007E0206C40F010002064606C99
:1012B00040F0010060640020F8BD000088000020BC
:1012C00040420F000023014043080008C7080008FF
:1012D000B108000800200140002101400022014027
:1012E00090F82020012A07D0022A05D0416A41F453
:1012F0008021416201207047CA0704D002689368C8
:1013000043F0800393608A0704D50268936843F42E
:1013100000439360490704D50068816841F40001E7
:1013200081600020704790F82020012A07D0022A0F
:1013300005D0416A41F48021416201207047006874
:1013400042690A43426100207047F0B590F820508E
:101350000468A468012D05D0022D03D0416A41F430
:1013600080215DE014F0406F01D1E50055D5C4F354
:101370000164022C03D9416A41F4000150E00125C7
:10138000A5401D608D684FF4C0739DB1CE68354394
:101390004E6845EAC605066803EB0417F5514FF49D
:1013A000C275076805EB04150E697E51097D012998
:1013B00005D009E00E88CD6845EA4655EBE701689F
:1013C0004E5946F480764E511179D579567941EAD5
:1013D000056195792D0445EA062529434FF4C67623
:1013E000056806EB0416A9511178D57841EA056124
:1013F000957852782D0445EA022211434FF4C475C2
:10140000026805EB04155151006803EB04114258C2
:1014100042F0010242500020F0BD416A41F4001147
:1014200041620120F0BD000010B590F82020012A93
:1014300007D0022A05D0416A41F48021416201208F
:1014400010BD3B48D0F8002242F00102C0F8002253
:10145000D0F8002222F47C52C0F80022D0F80022FA
:101460004B6A42EA0322C0F800220A7D02F01F0301
:1014700001229A40D0F81C329343C0F81C32CB6949
:10148000B3B9D0F80C329343C0F80C328C894B6856
:1014900064F31F434C6900EBC404C4F840320C8968
:1014A0000B6864F31F434C6900EBC404C4F8443276
:1014B000CB69012B16D1D0F80C321343C0F80C3293
:1014C0000C884B6864F31F434C6900EBC404C4F8F8
:1014D00040320C89CB6864F31F434C6900EBC404B1
:1014E000C4F844328B69002BD0F804320ED0134379
:1014F000C0F804320B69002BD0F8143208D0134323
:10150000C0F81432096A012904D008E09343EFE7D8
:101510009343F5E7D0F81C121143C0F81C12D0F821
:10152000001221F00101C0F80012002010BD0000DF
:1015300000640040704730B590F82040012C05D081
:10154000022C03D0416A41F480215DE00468002947
:1015500055D02469A40754D04FF4D874056804EB1F
:1015600001142D5915F00405956005682D594ED0CC
:10157000ED08556005682C5904F00204D4604FF45E
:10158000DA74056804EB01142D5905F00F05156197
:1015900005682D59C5F30725956105682C59240C5C
:1015A00054614FF4DC72046802EB0112A4581C7001
:1015B0000468A458240A5C700468A458240C9C7025
:1015C0000468A258120EDA704FF4DE72046802EB5F
:1015D0000112A4581C710468A458240A5C710468A0
:1015E000A458240C9C710468A258120EDA71006889
:1015F00081B1016941F020010161002030BDE46842
:10160000A8E7416A41F400114162012030BD6D0D2F
:101610001560AFE7C16841F02001C160EDE7024607
:10162000002092F82010012901D002290CD1116864
:101630008A68520100D501208A68120100D5401C39
:101640008968C90000D5401C70472DE9F05F054648
:10165000006800244669D0F804908768D0F80CB080
:10166000D0F810A0D0F81880F10748D0F90714D0AE
:1016700001218160B80703D5284600F05EFA0CE02E
:10168000780702D54FF4006407E0380702D54FF41D
:10169000805402E0284600F04FFAF80516D5296874
:1016A0004FF480708860B80503D5284600F047FAEB
:1016B0000CE0780502D544F4005407E0380502D563
:1016C00044F4804402E0284600F038FAF80316D5C6
:1016D00029684FF480308860B80303D5284600F0AD
:1016E00030FA0CE0780302D544F4004407E03803F4
:1016F00002D544F4803402E0284600F021FA300795
:1017000007D55FEACB6004D52968102044F4007443
:10171000C86070074FF0080707D55FEA0B7004D563
:101720002868C760284600F099F9B00706D52868F0
:10173000C068800702D0284600F092F9700607D5ED
:101740005FEACA6004D52968102044F48064086107
:10175000B00607D55FEA0A7004D5286807612846F5
:1017600000F0BAF9F00606D528680069800702D0B3
:10177000284600F0B2F9B00308D55FEAC96005D584
:10178000296810204860284600F0A8F9F00307D522
:101790005FEA097004D528684760284600F0D2F94E
:1017A000300446D55FEA497040D5F00504D55FEABC
:1017B000C87001D044F00104B00504D55FEA887018
:1017C00001D544F00204700504D55FEA487001D5E4
:1017D00044F00404300529D518F0700F26D008F025
:1017E0007000402815D006DC102809D020280AD027
:1017F000302816D10AE050280ED0602811D10EE012
:1018000044F008040DE044F010040AE044F0200421
:1018100007E044F0400404E044F0800401E044F4B4
:1018200080742868816921F0700181612968042031
:101830004860002C05D0686A204368622846FFF79C
:1018400079FEBDE8F09F70B5040003D094F8200045
:1018500010B104E0012070BD204600F081F820683E
:10186000016841F00101016000F04AFC05460526CF
:1018700004E000F045FC401B0A2811D820684068AD
:10188000C007F6D02068016821F00201016000F075
:1018900037FC05460BE000F033FC401B0A2806D954
:1018A000606A40F40030606284F82060D2E720680B
:1018B00040688007EFD4207E0128206801683DD071
:1018C00021F080010160607E01282068016838D025
:1018D00021F040010160A07E01282068016833D01A
:1018E00021F020010160E07E0128206801682ED0EF
:1018F00041F010010160207F01282068016829D093
:1019000021F008010160607F01282068016824D06F
:1019100021F004010160D4E902010843D4E9041272
:10192000114308436168491E08432168C8610020CB
:101930006062012084F82000002070BD41F0800129
:10194000C0E741F04001C5E741F02001CAE721F0BE
:101950001001CFE741F00801D4E741F00401D9E7D5
:10196000F0B587B0044614216846FEF7C7FC364B35
:101970003648DFF8D0E01968D4F800C0334A0325B0
:101980000226092710300024491CF44522D1196091
:10199000012907D1016841F000710160006800F081
:1019A00000700590106840F0080010601068CDE9E4
:1019B000005600F00800CDE9047069462448CDE9DE
:1019C000024500F09FFA00220521142000F06EFD70
:1019D000142032E0DFF87CE0F44530D1D0F800C0CC
:1019E0004CF0806CC0F800C0D0F800C001290CF0A9
:1019F000806CCDF814C0196007D1016841F0007106
:101A00000160006800F000700590106840F002006E
:101A10001060106802AB00F0020005906020CDE974
:101A2000000683E8B00069460B4800F06BFA00221C
:101A30000521402000F03AFD402000F029FD07B0CC
:101A4000F0BD000000640040040000203038024077
:101A5000000C024000680040000402407047000093
:101A60002DE9F04104461A4B1A4A0021FFF763FDA5
:101A700008B1FFF7A6F916480021083000EB011263
:101A80001268A24220D100EB01140025D4E90167BD
:101A900007E000BF57F8252012B10D490D489047C7
:101AA0006D1C607BA842F5DC00250A4F07E000BFF3
:101AB00056F8252012B10649386890476D1C207BE6
:101AC000A842F5DCBDE8F081491C0229D6DBF9E724
:101AD00020000020940D00207047704770470000E0
:101AE00070B5044690F82000012804D0606A40F4E4
:101AF0000020606218E0022084F82000206801685D
:101B000021F00101016000F0FBFA05460EE000BF84
:101B100000F0F6FA401B0A2808D9606A40F4003049
:101B20006062052084F82000012070BD20684068B4
:101B3000C007EDD1606270BD704770477047704755
:101B40007047704770472DE9F0410446876D00F0FB
:101B5000D7FA064694F835000025022806D08020E2
:101B6000606584F834500120BDE8F0812068016888
:101B700021F0160101602068416921F08001416176
:101B8000206C08B9A06C20B12068016821F0080120
:101B900001602068016821F0010101600CE000F0A3
:101BA000AFFA801B052807D920206065032084F840
:101BB000350084F83450D7E720680068C007EED1BC
:101BC00094F85C103F208840B860012084F835000C
:101BD00084F834500020C7E790F83510022903D06C
:101BE0008021416501207047052180F8351000688B
:101BF000016821F001010160002070472DE9F843E0
:101C000004464FF00009CDF8009063484FF4165198
:101C1000A56D0068B0FBF1F72E6894F85C10082001
:101C200000FA01F131420FD021680A6852070BD542
:101C30000A6822F004020A6094F85C108840A860E8
:101C4000606D40F00100606594F85C104FF0010891
:101C500008FA01F0304208D021684969090604D524
:101C6000A860606D40F00200606594F85C1004208C
:101C70008840304208D021680968890704D5A860E7
:101C8000606D40F00400606594F85C10102088409E
:101C9000304218D021680968090714D5A860206867
:101CA0000168490304D50068000308D5A16C07E06A
:101CB0000168C90503D4016821F008010160216CA5
:101CC00009B12046884794F85C10202088403042B3
:101CD00031D021680968C9062DD5A86094F835006F
:101CE00005282068016806D0490347D5006800032D
:101CF0001DD4616C1CE021F016010160206841696F
:101D000021F080014161206C08B9A06C20B12068ED
:101D1000016821F00801016094F85C103F208840C0
:101D2000A86084F8358084F83490216D1FE0E16B61
:101D300009B120468847606D00282BD0606DC00730
:101D400014D0052084F835002068016821F00101D5
:101D500001600098401C0090B84203D820680068D9
:101D6000C007F6D184F8358084F83490E16C0029FE
:101D700010D001B02046BDE8F04308470168C9050E
:101D8000D5D4016821F01001016084F8358084F811
:101D90003490CCE7BDE8F883880000202DE9F041BD
:101DA000044600F0ADF906465CB1022084F8350027
:101DB000002584F834502068016821F00101016099
:101DC0000DE00120BDE8F08100F09AF9801B0528A4
:101DD00005D920206065032084F83500F2E72068EB
:101DE0000068C007F0D12268116820480140D4E99A
:101DF00001031843D4E90336334318436369184396
:101E0000A3691843E3691843236A18430843616AC6
:101E1000042903D1D4E90B13194308431060206847
:101E20004069666A20F0070130460E430127042806
:101E30000CD1A06A0643E06A40B12046FEF778FF65
:101E400020B14020606584F83570BAE720684661AB
:101E50002046FEF759FF94F85C203F2191408160B5
:101E6000656584F835700020ACE700003F8010F015
:101E70002DE9F0410446866D90F8340000250128D4
:101E80000DD0012084F8340094F835700020012F23
:101E900007D084F8340002252846BDE8F0810220EE
:101EA000FBE7022784F8357060652046FEF76AFF7D
:101EB00094F85C103F208840B0602068016841F0D1
:101EC00016010160206C20B12068016841F0080112
:101ED00001602068016841F001010160DCE7000059
:101EE00070B5044600F00CF90546601C02D00448A9
:101EF0000078044400F004F9401BA042FAD370BDFE
:101F00007C0000202DE9F84FDFF8BCA1002201255C
:101F100003264FF00F090AF1040BAAF1040E00BFCB
:101F20000B6805FA02F42340A34270D10F7907F041
:101F30000307012F01D0022F16D187684FEA42080C
:101F400006FA08FC27EA0C07D1F80CC00CFA08FCCA
:101F50004CEA070CC0F808C04768A7430C79C4F3E3
:101F6000001494403C4344600C79E443A4070AD035
:101F7000C4684FEA420C06FA0CF7BC438F6807FAB4
:101F80000CF72743C7600C7904F00304022C12D12C
:101F9000D40800EB840CDCF820405707FF0E09FA48
:101FA00007F824EA0804D1F8108008FA07F848EA8C
:101FB0000408CCF8208004684FEA420C06FA0CF7BB
:101FC000BC430F7907F0030707FA0CF727430760B4
:101FD0004C6814F4403F70D03C4C276847F480476D
:101FE0002760246822F0030704F480440094384CEE
:101FF00007EB040CDCF8084897074FEA177809FA52
:1020000008F7BC43334FB84202D1002724E054E024
:10201000314FB84201D101271EE0304FB84201D103
:10202000022719E02E4FB84201D1032714E02D4FAB
:10203000B84201D104270FE02B4FB84201D1052748
:102040000AE02A4FB84201D1062705E0284FB842DE
:1020500001D1072700E0082707FA08F72743CCF843
:102060000878DAF800405746D1F804C09C435FEA8C
:10207000CC2C00D51C433C60DBF800405F46D1F817
:1020800004C09C435FEA8C2C00D51C433C60DEF806
:1020900000407746D1F804C09C435FEA8C3C00D5F1
:1020A0001C433C60084F083F3C68D1F804C09C4387
:1020B0005FEACC3C00D51C433C60521C102AFFF464
:1020C0002FAFBDE8F88F0000083C014044380240C3
:1020D00000300140000002400004024000080240BD
:1020E000000C0240001002400014024000180240A0
:1020F000001C02400AB1816170470904FBE700003F
:1021000001488068704700007C00002070B5040022
:1021100025D094F83D00002520B984F83C50204695
:1021200000F0B8F8242084F83D002068016821F010
:10213000010101602068016841F4004101602068EC
:10214000016821F40041016000F048FB4D4A6168DC
:10215000914201D84C4900E04C49884201D201200B
:1021600070BD4B492368B0FBF1F15E6826F03F0675
:102170000E435E606368934206D94FF496735943E9
:102180004FF47A73B1FBF3F12368491C1E6A26F001
:102190003F06314319626168914210D84900401EE0
:1021A000B0FBF1F2521CC2F30B02042A01D204204C
:1021B00022E0B0FBF1F0401CC0F30B001CE0A26871
:1021C000F2B301EBC10303EB0116431EB3FBF6F3BD
:1021D0005B1C43F480431B0549D092B301EBC10261
:1021E00002EB0111401EB0FBF1F0401CC0F30B00EC
:1021F00040F4804040F400402168CA694CF6FF7307
:102200009A431043C861D4E907100143206802686B
:1022100022F0C00211430160D4E9030101432068A8
:10222000826848F2FF339A4311438160D4E9050183
:1022300008432168CA6822F0FF021043C86001E029
:102240000EE016E02068016841F00101016025649C
:10225000202084F83D00256384F83E50002070BDA6
:1022600001EB4106431EB3FBF6F35B1CB3E7012011
:10227000C2E701EB4101401EB0FBF1F0401CC0F38E
:102280000B00B7E7A086010080841E0000093D0016
:1022900040420F002DE9F04186B004461421684603
:1022A000FEF72CF82F4A2168DFF8BC8000252E4865
:1022B00003241226042708F1100891421BD101685B
:1022C00041F0200101600068CDE9004600F02000E7
:1022D000CDE90470CDE9025469462448FFF712FEA7
:1022E000D8F8001041F48001C8F80010D8F80000B8
:1022F00000F4800031E01E4A91422FD1016841F084
:1023000004010160016801F004010591016841F0D8
:10231000010101600068CDE9025400F00100059060
:102320005015CDE90006694604971248FFF7EAFD0B
:102330004FF48070CDE90006CDE902546946049758
:102340000D48FFF7DFFDD8F8001041F40001C8F890
:102350000010D8F8000000F40000059006B0BDE8B9
:10236000F081000000580040303802400014024064
:10237000005C004000080240000002400248816802
:1023800002781144816070477C0000200B4810B532
:10239000016841F400710160016841F480610160ED
:1023A000016841F480710160032000F09FF80F2064
:1023B00000F006F800F050F8002010BD003C02408C
:1023C00030B505461F4887B00024016841F480718C
:1023D0000160006806A900F48070009001A800F078
:1023E000DDF90498A8B100F0F9F940001649174A40
:1023F000B0FBF1F11648491E026040F2E732C0E935
:102400000324C0E90114846100F0F2FD040003D04C
:1024100015E000F0E3F9E9E70D4800F02BFE0400B9
:102420000DD12D2000F034F8102D07D200222946BE
:102430002D2000F03BF80748056000E0012407B0BC
:10244000204630BD4038024040420F00002000408E
:102450000C0D0020800000200C4882B0016841F47F
:1024600080410160006800F4804000900748001F30
:10247000016841F0805101600068002200F0805046
:1024800000900F21901E02B000F010B844380240B6
:10249000002809DB00F01F02012191404009800063
:1024A00000F1E020C0F8001170470000F0B40E4BBE
:1024B0001B680C46C3F30223C3F10705042D00D9A2
:1024C0000425191D072901D2002300E0DB1E012687
:1024D00006FA05F1491E214099409E40761E16409D
:1024E0003143F0BC03F022BA0CED00E0064900F0E5
:1024F000070208684FF6FF03184040EA0220034A2B
:1025000010430860704700000CED00E00000FA0581
:102510002DE9F0418AB0040005D094F8BD04266886
:10252000002520B108E001200AB0BDE8F08184F860
:10253000BC54204600F05EF8032084F8BD04F06B24
:10254000C00500D42561206802F0E4FD04F110010B
:10255000282288466846FEF7C1F894E80F0002F08A
:10256000B7FC0226C8BB0021206802F017FE00203D
:1025700001270EE000EBC00104EB810181F83D7002
:1025800001F83C0F08810D71CD600D61401CC0B297
:102590008D6161688142EDD8002011E000EBC0013F
:1025A00004EB810181F87D5281F87C0281F8805230
:1025B000C1F88852C1F88C52401CC0B2C1F8945284
:1025C00061688142EAD8282241466846FEF786F8CB
:1025D00094E80F0002F0E4FC10B184F8BD64A2E7B7
:1025E00084F8385084F8BD74206802F0CBFC0020D9
:1025F0009AE7000010B586B0044614216846FDF73E
:102600007DFE2068B0F1A04F27D115480021026857
:1026100042F001020260006800F0010005904FF4F2
:10262000C05000900220CDE90101032003900A2050
:10263000049069460B48FFF765FC0948001D0168D6
:1026400041F08001016006481430016841F4804186
:102650000160006800F48040059006B010BD0000E5
:1026600030380240000002402DE9F0470E460500D8
:1026700065D0DFF81481D8F80000F7B200F0070049
:10268000B04207D288F80070D8F8000000F00700C8
:10269000B04254D128683D4C810712D5400703D57C
:1026A000206840F4E05020602878000703D52068B7
:1026B00040F4604020602068A96820F0F0000843E2
:1026C00020602878C0072DD0304968680839012873
:1026D00012D0022813D0032811D0096889070029D5
:1026E0002DDA216821F0030101432160FFF708FD85
:1026F000814641F2883A0EE009688903EFE70968EC
:102700008901ECE7FFF7FCFCA0EB0901514502D978
:102710000320BDE8F0872068696800F00C00B0EB8A
:10272000810FEFD1D8F80010404601F00701B14207
:1027300007D90770006800F00700B04201D00120FF
:10274000E7E72878400705D52068E96820F4E050DD
:10275000084320602878000706D52068296920F4FE
:10276000604040EAC100206000F058F82168084A43
:10277000C1F30311515CC84006490860064800686F
:10278000FFF71EFE0020C4E7003C0240083802406C
:102790001C75000888000020800000200F220260C5
:1027A0000C4A136803F003034360136803F0F0035B
:1027B0008360136803F4E053C36012684FF4E0537E
:1027C00003EAD20202610448006800F007000860D2
:1027D0007047000008380240003C024004480549A8
:1027E00000680968044AC1F38221515CC8407047FF
:1027F00088000020083802402C750008044805496C
:1028000000680968044AC1F34231515CC84070470E
:1028100088000020083802402C750008154810B5C3
:10282000006810F00C02144813D01449042A0FD089
:10283000082A0ED10F4C241F2268236802F03F02A1
:102840005B0207D52068C0F38810A0FB010106E0F9
:10285000084610BD2168C1F38811A1FB00010023C7
:10286000FDF714FD2168C1F30141491C4900B0FB8B
:10287000F1F010BD083802400024F400001BB7003E
:102880002DE9F84F04006ED02078DFF84C93C00794
:10289000A9F104054AD009F104000168C1F38101DE
:1028A000012908D00068C0F3810002280AD1D9F8B4
:1028B0000000400206D52868800337D560680028EC
:1028C000E1D033E06068B0F5803F10D0B0F5A02FC4
:1028D000286810D020F480302860286820F48020F8
:1028E00028606068A8B1FFF70BFC06460DE0286879
:1028F00040F48030F4E740F480202860F7E700BF20
:10290000FFF7FEFB801B642873D828688003F7D587
:102910000CE0FFF7F5FB064605E000BFFFF7F0FB14
:10292000801B6428F0D828688003F7D42078DFF86B
:10293000AC8280074FF0000A3ED5A748001D016811
:1029400011F00C0F08D00068C0F3810002280BD1F1
:10295000D9F80000400207D42868800716D5E0683F
:10296000012800D112E033E1E068B8B10120C8F8D5
:102970000000FFF7C5FB064605E000BFFFF7C0FB00
:10298000801B0228C0D828688007F7D528682169ED
:1029900020F0F80040EAC10028600DE0C8F800A06F
:1029A000FFF7AEFB064604E0FFF7AAFB801B0228F8
:1029B0001FD828688007F7D42078000722D5864FD3
:1029C00087486169703771B101210160FFF798FB99
:1029D000064604E0FFF794FB801B022809D83868FC
:1029E0008007F7D50EE0C0F800A0FFF789FB064688
:1029F00005E082E0FFF784FB801B02287DD8386861
:102A00008007F7D42078400768D5DFF8CCB10027DD
:102A10000BF13C0BDBF80000C0000BD4DBF800101E
:102A200041F08051CBF80010DBF80000012700F0E6
:102A3000805000906B4E3068C00510D4306840F470
:102A400080703060FFF75CFB009005E0FFF758FBFB
:102A50000099401A022850D83068C005F6D55E4E5D
:102A6000A0686C3601280FD00528306810D020F0FF
:102A700001003060306820F004003060A068B8B118
:102A8000FFF73EFB00900FE0306840F00100F4E7F4
:102A900040F004003060F7E7FFF732FB0099411A7D
:102AA00041F28830814266D830688007F4D50EE064
:102AB000FFF726FB009007E0FFF722FB0099411A81
:102AC00041F28830814256D830688007F4D42FB163
:102AD000DBF8001021F08051CBF80010A069C8B3DA
:102AE0003D49091D0968C1F3810102294AD0022824
:102AF000504607D0C8F8600000E03CE0FFF700FB5C
:102B000004463BE04746C8F86000FFF7F9FA06467E
:102B100005E000BFFFF7F4FA801B02282BD82868D5
:102B20008001F7D4D4E907010843A16A2E4A490875
:102B300002EB0141626A41EA8211084394F82C10C9
:102B400040EA0161C9F8001001203866FFF7D8FAA1
:102B5000044606E03EE000BFFFF7D2FA001B022861
:102B600009D828688001F7D534E000BFFFF7C8FA1C
:102B7000001B022802D90320BDE8F88F28688001D5
:102B8000F4D427E00128F7D0D9F80000E26900F476
:102B9000800191421CD1226A00F03F01914217D17D
:102BA00047F6C071626A0140B1EB821F10D1A26A80
:102BB0004FF0FF3300F4403103EB5202B1EB024F10
:102BC00006D194F82C1000F07060B0EB016F01D0CA
:102BD0000120D1E70020CFE704380240000047423F
:102BE000800E4742007000400000FFFF7047000069
:102BF00038B5016804464A688868C043430606D56C
:102C0000C30704D1D3435B0601D4216C05E08307DD
:102C100008D4D3431B0605D4616C01B02046BDE83F
:102C200030400847830603D5430601D5C30551D478
:102C3000D3439B064ED443060AD494F85130032B59
:102C400049D0636D43F004036365CB688B680093E0
:102C5000830609D4636D43F0010363658B680093B9
:102C60000B6823F040030B60C00506D4606D40F094
:102C700008006065206880680090606D002829D099
:102C80002068416821F0E0014160012084F8510092
:102C9000900701D4D00722D02068416821F00301B9
:102CA0004160114DE06C40B10565E06CFEF794FFAA
:102CB00018B1606D40F040006065A06C002809D03C
:102CC0000565A06CFEF788FF002803D0606D40F01A
:102CD0004000606538BDC8688868009038BD2046EF
:102CE000FFF784FF38BD00008948000870B5040074
:102CF00009D0606A002540B125616561A56294F83C
:102D0000510040B10CE0012070BD6068B0F5827FD9
:102D1000F4D0E561F2E784F85050204600F044F822
:102D2000022084F851002068016821F04001016010
:102D3000A088218900F4827001F404410843A1892C
:102D400001F400610843217C01F002010843217D68
:102D500001F001010843218B01F400710843217F38
:102D600001F03801084394F8201001F08001084375
:102D7000218D01F40051084321680860A0690421F5
:102D800001EA104094F8241001F010010843216872
:102D900048602068C16921F40061C1616565012056
:102DA00084F85100002070BD2DE9F04387B005463E
:102DB00014216846FDF7A2FADFF830C129684C48B3
:102DC0000226032305274B4A002461456DD148495B
:102DD0001431D1F800C04CF4805CC1F800C009681F
:102DE00001F480510591016841F002010160016820
:102DF00001F002010591016841F0010101600068E4
:102E0000CDE9024300F0010005901820CDE900064D
:102E10009846694604971046FFF774F88020CDE97C
:102E20000006CDE90248694604973348FFF76AF87F
:102E3000334E32484FF0C0673060C6E901744FF43A
:102E40008068C6E9034874614FF48039B461C6E90B
:102E5000074930467462FEF7A1FF08B1FDF7B1FFE4
:102E6000EE64B563264E254860361830E6E8020762
:102E70004020A6E81101224846F814496030B461A8
:102E8000C6E907497462FEF789FF08B1FDF799FFAB
:102E9000AE64002205212320B563FFF707FB232042
:102EA000FFF7F6FA07B0BDE8F083164DA942F9D155
:102EB0000F4910310D6845F480450D60096801F433
:102EC00080410591016841F0020101600068CDE98F
:102ED000024300F0020005904FF47040CDE9000677
:102EE000694604971046FFF70DF8DBE70030014014
:102EF00030380240000402400000024040640240BA
:102F0000A4030020003800407047704710B590F8C7
:102F10003C20012A22D0012280F83C20CA688C681B
:102F200022F4407222434C6822F4806222430C68EF
:102F300022F4006222430C6922F4805222434C693D
:102F400022F400522243C969002322F480420A433A
:102F500001684A6480F83C30002010BD022010BD9A
:102F600070B590F83C20012A32D0012480F83C4012
:102F7000022280F83D2003685A689D6822F070069E
:102F80000A6832435A60134B02689A4214D0B2F175
:102F9000804F11D0104B9A420ED0104B9A420BD05A
:102FA0000F4B9A4208D00F4B9A4205D00E4B9A42D3
:102FB00002D00E4B9A4204D1496825F08003194390
:102FC000916080F83D40002180F83C10084670BDBB
:102FD000022070BD000001400004004000080040D5
:102FE000000C004000040140004001400018004077
:102FF00010B5040003D094F83D0010B107E00120A3
:1030000010BD002084F83C00204600F01FF802208C
:1030100084F83D00211D206801F0AEFC012084F8F9
:10302000460084F83E0084F83F0084F8400084F8AD
:10303000410084F8420084F8430084F8440084F896
:10304000450084F83D00002010BD000008B5006870
:103050000649884208D10648016841F40031016000
:10306000006800F40030009008BD000000440140FA
:103070004438024090F83D10012901D001207047EA
:10308000022180F83D100168CA6842F00102CA605E
:1030900000681149884214D0B0F1804F11D00F4917
:1030A00088420ED00E4988420BD00E49884208D083
:1030B0000D49884205D00D49884202D00C4988420A
:1030C00004D1816801F00701062903D0016841F0AD
:1030D0000101016000207047000001400004004031
:1030E00000080040000C0040000401400040014086
:1030F000001800402DE9F047804CA0427ED1007FAF
:1031000001284CD002284CD004284CD008284CD0A0
:10311000FF257B4FDFF8EC914FF6FF7A785D09F1E0
:103120002006D8B3284602F067FA0146734800F03B
:1031300035FCA6F1100848F82500284602F05CFA94
:1031400000287CD0284602F057FA042878D0284678
:1031500002F052FA08282068016A72D021F4204156
:103160000162284602F048FA38B1284602F044FAD3
:10317000042802D0284602F03FFA2068016A016262
:10318000002078555F4A58F8250059F82510203A54
:10319000884272D2411A01EB0A0092E007E0002552
:1031A000B7E70125B5E70225B3E70325B1E7C84630
:1031B00059F82500DFF84C91A9F1100938B100EE5B
:1031C000100A09EB8500B8EE400A80ED000A284697
:1031D00002F012FA0146494800F0E0FB00EE100A46
:1031E00009EB850148F82500F8EE400A91ED000A48
:1031F000F4EEC00AF1EE10FA02D200E036E05044DC
:1032000000EE900A06EB8500F8EE600A30EEC00A88
:1032100080ED000A284602F0EFF948B3284602F094
:10322000EBF904282AD0284602F0E6F9082820689D
:10323000016A28D021F420410162284602E032E0F0
:1032400036E03AE002F0D8F900B3284602F0D4F9AB
:10325000042820D0284602F0CFF908282068016A07
:103260001ED041F40051016201207855BDE8F0877D
:103270002068016A21F00A01DEE721E02068016A86
:1032800021F0A001D8E721F42061D5E72068016A88
:1032900041F00201E7E72068016A41F02001E2E71E
:1032A00041F40071DFE72068016A21F00A0157E765
:1032B0002068016A21F0A00152E721F420614FE764
:1032C000401A00EE100A06EB8500B8EE400AD0ED79
:1032D000000A02EB850080EE201ADFED0B0A80ED7C
:1032E000001A06EB850090ED000A064880EE801A71
:1032F000303800EB850080ED001AB7E7AC04002001
:1033000048000020E00D00200024F44830B50446B9
:10331000002551B104290DD0082910D094F841009E
:1033200094F84520012811D10EE094F83E0094F85D
:103330004220F7E794F83F0094F84320F2E794F82E
:10334000400094F84420EDE7012A01D0012030BD6F
:10335000022059B1042912D0082919D084F841005B
:1033600084F845000C2944D0012540E084F83E0053
:1033700084F842002068C26842F0020210E084F83B
:103380003F0084F843002068C26842F0040207E06E
:1033900084F8400084F844002068C26842F00802C3
:1033A000C2600122206801F04BFB1449206888426A
:1033B00014D0B0F1804F11D0114988420ED011497C
:1033C00088420BD01049884208D01049884205D065
:1033D0000F49884202D00F49884204D1816801F028
:1033E0000701062903D0016841F001010160284668
:1033F00030BD2068C26842F01002D1E700000140F1
:103400000004004000080040000C0040000401409F
:10341000004001400018004070B504460068016992
:103420004FF00005C943890715D4C168C94389070E
:1034300011D4E91E0161012020772068806980078E
:10344000204602D0FFF756FE04E000F04FF9204678
:1034500000F034FA257720680169C943490717D479
:10346000C168C943490713D46FF004010161022008
:1034700020772068806910F4407F204602D0FFF753
:1034800039FE04E000F032F9204600F017FA257703
:1034900020680169C943090716D4C168C9430907EF
:1034A00012D46FF008010161042020772068C06900
:1034B0008007204602D0FFF71DFE04E000F016F959
:1034C000204600F0FBF9257720680169C943C90649
:1034D00017D4C168C943C90613D46FF01001016144
:1034E000082020772068C06910F4407F204602D071
:1034F000FFF700FE04E000F0F9F8204600F0DEF9E6
:10350000257720680169C943C90708D1C168C94343
:10351000C90704D1891E0161204600F035FA2068F0
:103520000169C943090609D4C168C943090605D41C
:103530006FF0800101612046FFF7E6FC2068016919
:10354000C943490609D4C168C943490605D46FF087
:1035500040010161204600F036FA20680169C94344
:1035600089060BD4C168C943890607D46FF02001CE
:1035700001612046BDE87040FFF7C7BC70BD000088
:103580002DE9F04186B0044614216846FCF7B6FEEA
:10359000494A2168002449480225914212D1016814
:1035A00041F0100101600068694600F010000590CC
:1035B0004FF4D4400090CDE901540120CDE90340FF
:1035C0003F4813E03F4ADFF80081914213D1016880
:1035D00041F0040101600068694600F004000590B4
:1035E00090150090CDE90154404628E0FEF78AFC92
:1035F00006B0BDE8F081354A91420ED1016841F034
:10360000080101600068694600F008000590101488
:103610000090CDE901542E4811E02E4A914211D17B
:10362000016841F0800101600068694600F0800097
:1036300005904FF4E0500090CDE901542648CDE9C3
:103640000345D3E7254A03264027914221D101684B
:1036500041F480710160016801F480710591016895
:1036600041F0040101600068694600F00400059023
:10367000C0200090CDE90154CDE903461848FEF77B
:1036800041FC0097CDE90154CDE903466946404627
:10369000ACE7144A9142ABD1016841F020010160CE
:1036A00000680097CDE9015400F02000CDE90460E6
:1036B000694603940C4899E7000001403038024005
:1036C00000100240000400400008024000080040D2
:1036D000000C0240000C0040001C024000040140AD
:1036E000002002400044014000140240704770B5C1
:1036F000044690F83C0000260D4601280FD001201A
:1037000084F83C006AB1042A1DD0082A2FD00C2A64
:103710003FD00126002084F83C00304670BD0220D6
:1037200070BD206801F09AF92068816941F00801B4
:1037300081612068816921F00401816120688169CB
:103740002A69114311E0206801F0B8F92068816905
:1037500041F4006181612068816921F480618161A7
:10376000206881692A6941EA02218161D2E72068E3
:1037700001F0DAF92068C16941F00801C1612068EF
:10378000C16921F00401C1612068C1692A6911433E
:1037900011E0206801F0FCF92068C16941F4006182
:1037A000C1612068C16921F48061C1612068C1697B
:1037B0002A6941EA0221C161ACE710B5040003D0D7
:1037C00094F83D0010B107E0012010BD002084F8FE
:1037D0003C00204600F01EF8022084F83D00211D28
:1037E000206801F0C9F8012084F8460084F83E0002
:1037F00084F83F0084F8400084F8410084F84200D7
:1038000084F8430084F8440084F8450084F83D00BF
:10381000002010BD08B501682248234A814207D123
:10382000106840F001001060106800F001000BE02B
:103830001D481E4B001F994208D1016841F002014A
:103840000160006800F00200009008BD184B99422A
:1038500007D1016841F004010160006800F0040034
:10386000F2E7144B994207D1016841F00801016069
:10387000006800F00800E7E70F488142E5D11068D2
:1038800040F0020010601068002200F0020000907A
:103890000F212D20FEF70AFEBDE808402D20FEF77F
:1038A000F7BD000000000140443802400004004021
:1038B00000080040000C0040000401407047000078
:1038C00010B50446022249B104290ED0082913D0AC
:1038D00094F84100012816D0012010BD94F83E0054
:1038E0000128F9D184F83E200FE094F83F00012828
:1038F000F2D184F83F2008E094F840000128EBD191
:1039000084F8402001E084F841200122206801F081
:1039100097F816492068164A884201D0904203D190
:10392000436C43F4004343642068884213D0B0F1F1
:10393000804F10D00F4988420DD00F4988420AD0DD
:103940000E49884207D0904205D00D49884202D0E6
:103950000C49884204D1816801F00701062903D08F
:10396000016841F001010160002010BD000001402C
:10397000000401400004004000080040000C00402A
:10398000004001400018004000680349884201D10E
:10399000FEF7F4BC70470000002000400246002003
:1039A00041B1042909D008290AD00C2901D1106895
:1039B000006C70471068406B70471068806B7047F0
:1039C0001068C06B7047704738B5044690F83E00E9
:1039D000202822D181B17AB194F83C0001281CD072
:1039E000012084F83C002063204601F027FA0028DB
:1039F00003D1216B012901D0012038BD21680A685B
:103A00004968009121680C3151E8002F42F0100202
:103A100041E80023002BF5D138BD022038BD00005D
:103A20002DE9F041054614480E46002450F82410B4
:103A3000A9421BD1284600F023F8104800F1600786
:103A400050F824201AB107EB04203146904707EBC9
:103A5000042400264FF4807721463A462846FFF793
:103A6000B3FF002805D085F83C60F5E7641C032C03
:103A7000DCDBBDE8F081000054000020100E0020C7
:103A800010B504460068406994F83D10C0F3C010BA
:103A9000212911D180B12068143050E8001F21F095
:103AA000800140E80012002AF5D1606B08B1FEF7F2
:103AB0004AF8204601F02EF92068406994F83E103B
:103AC000C0F38010222911D180B12068143050E851
:103AD000001F21F0400140E80012002AF5D1A06B40
:103AE00008B1FEF730F8204601F0EDF8002010BDD7
:103AF00010B5144A002100BF52F8213083421CD176
:103B0000114A32F831305B1C22F83130006CC307A7
:103B100004D002EBC1035C88641C5C80430704D5BD
:103B200002EBC1039C88641C9C80800704D502EBD7
:103B3000C100C188491CC18010BD491C0329DBDBC1
:103B400010BD000054000020580E002070B5040085
:103B500004D094F83D00002510B106E0012070BDAE
:103B600084F83C50204600F023F8242084F83D00DF
:103B70002068C16821F40051C160204601F0D8F8E6
:103B80002068016921F4904101612068416921F0B8
:103B90002A0141612068C16841F40051C160256477
:103BA000202084F83D0084F83E00002070BD000015
:103BB0002DE9F04F87B0054614216846FCF79EFBBF
:103BC0007D48DFF8F081143802212B680024DFF8EB
:103BD000E8C103220615CF034FF007094FF0006B31
:103BE000434554D1DCF8003043F01003CCF80030EA
:103BF000DCF8003003F010030593036843F0020380
:103C00000360036803F002030593036843F00103B4
:103C100003600068884600F0010005908020CDE92F
:103C20000008CDE9024292466946CDF810906348FB
:103C3000FEF768F97010CDE90008CDE9024A69463F
:103C4000CDF810905E48FEF75DF9DFF87C815D49A4
:103C50004046C8F80010C0E901B4C0E90346C8F8FE
:103C60001440C8F81840C8E90747C8F82440FEF7D0
:103C700095F808B1FDF7A5F8C5F8388000220521B0
:103C80002520C8F83850FEF711FC252044E0DFF865
:103C90003C81434545D1484B1B1FD3F800C04CF431
:103CA000802CC3F800C01B6803F4802305930368CD
:103CB00043F004030360006800F0040005904FF433
:103CC00040608DE81300CDE9032969464048FEF7BE
:103CD00019F9DFF8F4803F4908F160084046C8F858
:103CE0000010C0E901B4C0E90346C8F81440C8F8A0
:103CF0001840C8E90747C8F82440FEF74FF808B154
:103D0000FDF75FF8C5F83880002205212720C8F8A4
:103D10003850FEF7CBFB2720FEF7BAFB07B0BDE813
:103D2000F08FDFF8B4804345F8D1DCF8003043F081
:103D30002003CCF80030DCF8003003F020030593BA
:103D4000036843F040030360006800F04000059002
:103D50004FF484408DE813000820CDE90320694624
:103D60001E48FEF7CFF8DFF86080164908F1C0085A
:103D700060394046C8F800108905C0E90114C0E95F
:103D80000346C8F81440C8F81840C8E90747C8F8FF
:103D90002440FEF703F808B1FDF713F8C5F83880A2
:103DA000002205214720C8F83850FEF77FFB472046
:103DB000B2E7000000100140443802400004024015
:103DC0000000024088640240E006002000480040F5
:103DD0000008024028600240001401400018024020
:103DE0007047704770B50D462DED028B0446D0ED3F
:103DF000020A90ED010A20EE808A90ED000ADFEDC4
:103E00003E0A20EE200ADFED3D0AC0EE208AF0EEE9
:103E1000000AB0EE680A01F044FDF0EE400AB7EE89
:103E2000000ADFED371A70EEC00AF5EEC08AF0EE38
:103E3000E00A30EE600A20EE081AF1EE10FA09DB13
:103E400018EE900AB0F17E5F04DAF0EE480AB0EEA8
:103E5000410A0AE018EE900AA0F17E50B0F5000F7A
:103E600006D2F0EE410AB0EE480AB0EE611A30E038
:103E700018EE900A4FF48001A0F18040884204D2ED
:103E8000F0EE610AB0EE480A23E018EE900A1D4AEF
:103E90001044884204D2F0EE610AB0EE410A0BE011
:103EA00018EE900A4FF40011A0F18140884206D22A
:103EB000F0EE410AB0EE610AB0EE481A09E018EEE1
:103EC000900A114A1044884213D2F0EE480AB0EE2C
:103ED000610AD4ED021A71EEC81A70EEA10A30EE32
:103EE000210AC5ED000A85ED010A31EE210A85EDB2
:103EF000020ABDEC028B70BD0000B44300007042AA
:103F0000000000000000C0BF000060BFFEE700002E
:103F100010B505490120FCF719FEBDE81040034922
:103F20000220FCF713BE0000DD580008CD58000841
:103F300010B5074A0021074801F0E0FE064C044A8C
:103F40000021A0602432054801F0D8FEE06010BDD9
:103F5000CC7400081D5600086C000020FD510008BC
:103F60001FB500211648009101910291134A039157
:103F7000026001244FF440320461C0E9012104765B
:103F800080F820100F4AC0E90A21C461C16080F89E
:103F900030404461FDF779F808B1FCF712FF0820C2
:103FA000CDE900040720029069460548FCF716FF9A
:103FB000002801D0FCF705FF1FBD000000220140D2
:103FC000540100200100000F0F4810B50D49016099
:103FD0000621416000214FF400328160C0E90312E4
:103FE00012014261017641768176C176017741778F
:103FF000FDF729FC002803D0BDE81040FCF7E1BE26
:1040000010BD000000640040FC0100200F4810B506
:104010000D4901600621416000214FF400328160AA
:10402000C0E9031212014261017641768176C176C0
:1040300001774177FDF707FC002803D0BDE8104069
:10404000FCF7BFBE10BD0000006800402402002045
:10405000214808B5016841F480010160016801F45C
:1040600080010091016841F40011016000680022A4
:1040700000F40010009005210C20FEF717FA0C2028
:10408000FEF706FA002205213820FEF70FFA382045
:10409000FEF7FEF9002205213920FEF707FA392044
:1040A000FEF7F6F9002205213A20FEF7FFF93A2043
:1040B000FEF7EEF9002205213B20FEF7F7F93B2041
:1040C000FEF7E6F9002205214420FEF7EFF9BDE8EE
:1040D00008404420FEF7DCB93038024010B5044AED
:1040E0000021044801F00AFE0349086010BD0000E9
:1040F0006074000899480008000000202DE9F04392
:1041000087B014216846FCF7F9F85048002401688C
:1041100041F002010160016801F0020105910168AE
:1041200041F040010160016801F040010591016822
:1041300041F001010160016801F001010591016890
:1041400041F008010160016801F008010591016872
:1041500041F004010160016801F00401059101686A
:1041600041F480710160016801F48071059101687A
:1041700041F020010160016801F020010591016812
:1041800041F080010160016801F080010591016842
:1041900041F01001016000682D4E00F01000059004
:1041A000002240213046FDF7A5FFDFF8A88001225C
:1041B00010214046FDF79EFFDFF89C90012211463A
:1041C0004846FDF797FF402000900125CDE90154B6
:1041D000694630460394FDF795FE082000904FF4A1
:1041E0008810CDE9010469463046FDF78BFE0720B3
:1041F000CDE90004194F694638460294FDF782FE66
:10420000CDE90054694640460295FDF77BFE10203B
:104210000326CDE90005CDE9024669464046FDF793
:1042200071FE302000904FF40410CDE9010569467D
:104230003846FDF767FE03960095CDE901546946BF
:104240004846FDF75FFE07B0BDE8F0833038024016
:104250000018024000000240000402400008024032
:104260000D4810B50B4901600C49416000214FF425
:1042700080428160C0E9031241618161C1610162D4
:10428000FDF744FF002803D0BDE81040FCF799BDBE
:1042900010BD0000005800404C020020A086010024
:1042A0000D4810B50B4901600C49416000214FF4E5
:1042B00080428160C0E9031241618161C161016294
:1042C000FDF724FF002803D0BDE81040FCF779BDBE
:1042D00010BD0000005C0040A0020020A08601008C
:1042E000104810B50E4901604FF482714160002101
:1042F0008160C1604FF400720161C0E905121822AB
:10430000C0E90721416281620A21C162FEF7EEFC29
:10431000002803D0BDE81040FCF753BD10BD0000DD
:1043200000300140F40200200F4810B50D49016033
:104330004FF48271416000218160C1604FF480229E
:104340000161C0E90512C1610162416281620A2115
:10435000C162FEF7CBFC002803D0BDE81040FCF79B
:1043600030BD10BD003800404C03002010B588B0AF
:104370001C216846FBF7C2FF144813490024C0E91A
:1043800000144FF6FF71C0E9024104618461FEF739
:104390002FFE08B1FCF715FD0C48FFF70EFA08B127
:1043A000FCF70FFD6020CDE900040294002269466D
:1043B00006480494FFF79BF908B1FCF702FD034897
:1043C000FFF7DEF808B010BD00440140CC05002026
:1043D00010B592B000240F941C2168461094FBF78E
:1043E0008DFF202107A8FBF789FF2C482A4901608F
:1043F000A721C0E9011442F21071C0E9031444611D
:104400008461FFF7DAF908B1FCF7DBFC0F940FA920
:1044100022481094FEF7A4FD08B1FCF7D2FC6020FE
:10442000CDE90004029403940494059400226946A3
:104430001A480694FFF75BF908B1FCF7C2FC0422A6
:1044400069461648FFF753F908B1FCF7BAFC082291
:1044500069461248FFF74BF908B1FCF7B2FC0C2291
:1044600069460E48FFF743F908B1FCF7AAFC079428
:10447000089409944FF400500A94CDE90B4007A921
:1044800006480E94FEF742FD08B1FCF79AFC03487B
:10449000FFF776F812B010BD000001406404002060
:1044A00010B58AB0002407941C2168460894FBF7D5
:1044B00025FF16481449C0E900144FF6FF71C0E902
:1044C000024104618461FFF778F908B1FCF779FCD7
:1044D000079407A90D480894FEF742FD08B1FCF7C0
:1044E00070FC6020CDE90004029408226946074868
:1044F0000494FFF7FCF808B1FCF763FC0348FFF7EE
:104500003FF80AB010BD000000040040AC040020D9
:1045100010B58AB0002407941C2168460894FBF764
:10452000EDFE16481449C0E900144FF6FF71C0E9CA
:10453000024104618461FFF740F908B1FCF741FCD6
:10454000079407A90D480894FEF70AFD08B1FCF787
:1045500038FC6020CDE9000402940822694607482F
:104560000494FFF7C4F808B1FCF72BFC0348FFF7ED
:1045700007F80AB010BD000000080040F404002055
:1045800010B58AB0002407941C2168460894FBF7F4
:10459000B5FE1E481C49C0E900144FF6FF71C0E982
:1045A000024104618461FFF708F908B1FCF709FCD6
:1045B000079407A915480894FEF7D2FC08B1FCF748
:1045C00000FC6020CDE900040294002269460F48F7
:1045D0000494FFF78CF808B1FCF7F3FB042269465A
:1045E0000A48FFF784F808B1FCF7EBFB082269469C
:1045F0000648FFF77CF808B1FCF7E3FB0348FEF739
:10460000BFFF0AB010BD0000000C00403C050020B8
:1046100010B592B000240F941C2168461094FBF74B
:104620006DFE202107A8FBF769FE28482649016096
:10463000A721C0E9011442F21071C0E903144461DA
:104640008461FFF7BAF808B1FCF7BBFB0F940FA920
:104650001E481094FEF784FC08B1FCF7B2FB602002
:10466000CDE9000402940394049405940022694661
:1046700016480694FFF73BF808B1FCF7A2FB0422AA
:1046800069461248FFF733F808B1FCF79AFB082295
:1046900069460E48FFF72BF808B1FCF792FB079428
:1046A000089409944FF400500A94CDE90B4007A9EF
:1046B00006480E94FEF72AFC08B1FCF782FB03487B
:1046C000FEF75EFF12B010BD00040140840500201B
:1046D0000C4810B50A4901604FF4E13141600021F6
:1046E00081600C22C160C0E904128161C161FFF7E1
:1046F0002DFA002803D0BDE81040FCF762BB10BDC6
:1047000000100140140600200D4810B50B4901604F
:104710000C49416000214FF480628160C0E90312BE
:104720000C22C0E90521C161FFF710FA002803D06F
:10473000BDE81040FCF745BB10BD0000004800403C
:1047400058060020A08601000C4810B50A490160F7
:104750004FF4E1314160002181600C22C160C0E969
:1047600004128161C161FFF7F1F9002803D0BDE8AF
:104770001040FCF726BB10BD001401409C06002031
:104780000C4810B54FF0A0410160042141600222A5
:104790000021C0E90321C0E9062101624162C16232
:1047A0000163FDF7B5FE002803D0BDE81040FCF71B
:1047B00008BB10BD0008002010B5044A00210448C1
:1047C00001F09CFA0349086010BD0000A8740008BD
:1047D0008556000868000020FEE70000024901EB52
:1047E0000010B0F90C0070473C12002010B54A7858
:1047F0000B7802EB0322114B92B203EB0010828084
:10480000CB788C7803EB0423C3804B790C7903EBD2
:104810000423038189798172C18941F28833511A55
:10482000994202DD0168491E05E041F28833D94210
:1048300002DA0168491C0160C28110BD3C120020EF
:1048400010B508490120FCF781F907490220FCF75F
:104850007DF9064A0021064801F050FA0549086032
:1048600010BD0000BB580008A75800088474000859
:10487000A156000864000020FEE700000148FEF792
:10488000B7B90000F402002010B5806B0021C18789
:10489000C186FEF7ABF910BD012001F0F3F9FBE78B
:1048A00010B54FF0E020006902F01CFC012803D095
:1048B000BDE8104002F04AB910BD000030B593B019
:1048C00030216846FBF71AFD14210CA8FBF716FDF2
:1048D0001C480025016841F080510160006800F02B
:1048E000805011901848016841F4804101600068CF
:1048F000022400F4804011900120009000040190F7
:104900008001CDE9064006200890A820CDE90904E1
:1049100007200B906846FDF7B3FF08B172B6FEE7BB
:104920000CA90F2081E831004FF4A0500F90109097
:1049300005210CA8FDF798FE002801D072B6FEE70D
:1049400013B030BD4038024000700040024801689A
:1049500041F470010160704788ED00E010B5044833
:10496000FEF75AFDBDE810400248FEF755BD0000B5
:10497000840500200C0D0020F0B50268254C264D62
:10498000264E274F274B4FF0804CA04209D0604560
:1049900007D0A84205D0B04203D0B84201D0984217
:1049A00004D122F0700E4A6842EA0E02A0421BD0E7
:1049B000604519D0A84217D0B04215D0B84213D0E4
:1049C000984211D0184DA8420ED0184DA8420BD0D5
:1049D000174DA84208D0174DA84205D0164DA84241
:1049E00002D0164DA84203D122F44075CA682A436A
:1049F0004D6922F080022A4302608A68C2620A6816
:104A00008262A04201D0984201D10969016301216B
:104A10004161F0BD0000014000040040000800407A
:104A2000000C0040000401400040014000440140EF
:104A30000048014000180040001C004000200040D9
:104A400010B501F01F030121046A99408C430462F0
:104A5000016A9A401143016210BD0000F0B5026A7C
:104A600022F001020262036A42688469124E24F055
:104A700073050C682C4323F002058B682B430D4D06
:104A8000A84201D0B04205D123F00807CB683B43D0
:104A900023F00403A84201D0B04205D14D6922F4AD
:104AA000407215438A692A434260846149684163C0
:104AB0000362F0BD0000014000040140F0B5026A4D
:104AC00022F010020262026A436884690D6824F4CD
:104AD000E64444EA05248D6822F0200242EA0512E9
:104AE0000F4D104EA84201D0B04206D1CF6822F03F
:104AF000800242EA071222F04002A84201D0B042EE
:104B000007D14D6923F4406343EA85038D6943EA85
:104B1000850343608461496881630262F0BD0000DF
:104B20000000014000040140F0B5026A22F48072E6
:104B30000262026A4368C46922F4007224F07305B9
:104B40000C68124E2C438D6842EA05220E4DA84295
:104B500001D0B04206D1CF6822F4006242EA0722B7
:104B600022F48062A84201D0B04207D14D6923F4FB
:104B7000405343EA05138D6943EA05134360C4615A
:104B80004968C1630262F0BD0000014000040140B9
:104B900030B5026A22F480520262046A4268C36934
:104BA0000D6823F4E64343EA05238D6824F400549A
:104BB00044EA0534084DA84202D0084DA84204D169
:104BC0004D6922F4804242EA85124260C36149681D
:104BD0000164046230BD0000000001400004014097
:104BE00070B5846B2068406994F83D10C0F3C01024
:104BF0000025212904D118B1E584204600F08AF867
:104C00002068406994F83E10C0F38010222904D136
:104C100018B1E585204600F056F8206C40F01000F1
:104C200020642046FEF764FF70BD10B50146806B1E
:104C300009680968C9052FD40021C18501680C31B4
:104C400051E8002F22F4807241E80023002BF5D1B7
:104C50000168143151E8002F22F0010241E80023DD
:104C6000002BF5D10168143151E8002F22F04002E9
:104C700041E80023002BF5D1202180F83E10016B84
:104C8000012909D101680C3151E8002F22F01002EE
:104C900041E80023002BF5D1016B012902D0FFF779
:104CA0009FF810BD818DFEF7BBFE10BD10B5806B67
:104CB000016B012902D0FFF794F810BD818D4908DE
:104CC000FEF7AEFE10BD01680C3151E8002F22F452
:104CD000907241E80023002BF5D10168143151E8AE
:104CE000002F22F0010241E80023002BF5D1016BD7
:104CF000012909D101680C3151E8002F22F010027E
:104D000041E80023002BF5D1202180F83E1000213E
:104D10000163704701680C3151E8002F22F0C00296
:104D200041E80023002BF5D1202180F83D10704789
:104D300070B5044600680169E26821F440511143EE
:104D400001612169A068E269084361691143084370
:104D50002168CA6849F20C639A430243CA6020681A
:104D60004169A26921F440711143416131492068D0
:104D7000884202D03049884202D1FDF73FFD01E070
:104D8000FDF72CFDE2690023192164253226B2F5D6
:104D9000004F626828D0A0FB0101930F9200FBF73F
:104DA00075FA0146B0FBF5F06FF01802504301EBC5
:104DB000800006EB0010B0FBF5F000F0F002B1FB54
:104DC000F5F002EB0012B1FBF5F06FF01803584359
:104DD00001EB800006EB0010B0FBF5F000F00F00D7
:104DE00021681044886070BDA0FB010192185B41EE
:104DF000FBF74CFA0146B0FBF5F00201B1FBF5F010
:104E00006FF01803584301EB800006EBC000B0FBC5
:104E1000F5F000F0F80002EB4002B1FBF5F058436A
:104E200001EB800006EBC000B0FBF5F000F00700DE
:104E3000D6E70000001001400014014038B581623F
:104E400082850025134604460564222084F83E002E
:104E5000A26B1C48D063A26B1B481064A26B1B485A
:104E6000D064A06B0A4605652168A06B091DFCF79C
:104E7000FFFF206801684068009084F83C5020697A
:104E800048B120680C3050E8001F41F4807140E8C0
:104E90000012002AF5D12068143050E8001F41F0BC
:104EA000010140E80012002AF5D12068143050E8D2
:104EB000001F41F0400140E80012002AF5D1002017
:104EC00038BD00002B4C0008AD4C0008E14B000839
:104ED00070B5044606990A9E049D0D98012916D0C6
:104EE000E06840F04000E060204600F02BF8A16B45
:104EF0001EB321F48031A163012D07D1A16841F0D7
:104F00000601A160A16841F02001A16070BDA16B04
:104F100021F48031A163E168094A1140E160E16850
:104F200021F44011E160012803D1E06840F48010D1
:104F3000E060204600F006F8DEE741F48031DAE771
:104F4000BFFFBDFF08B500220D490092009B5B1C0E
:104F500000938B420CD80369002BF7DA00920269A8
:104F600042F001020261009A521C00928A4201D969
:104F7000032008BD0269D207F5D1002008BD00005A
:104F8000400D0300D0F8001E21F00301C0F8001E00
:104F9000D0F8041841F00201C0F80418002070474E
:104FA0002DE9F04F00250E460446DDF82CC0DDF853
:104FB00024B0109F2846294604EB8002C2F8041151
:104FC000401C0F28F8D32046C7B1806B20F4001294
:104FD000A263A06B40F40022A26308468846C4F88E
:104FE000000ED4F800182046C4F80018BCF1010FD8
:104FF00016D0D0F8001841F0030116E0D0F80408EC
:1050000040F00202C4F80428A06B40F40012A2632E
:10501000A06B20F40022A263A06B20F48022DBE7C7
:10502000D0F800180BB141F00101C0F800181021B0
:1050300000F094F800B10125204600F071F800B1AD
:1050400001254046C4F81088C4F81488C4F81C88A8
:1050500000214FF000694FF0904A4FF67F3314E083
:1050600004EB4112D2F800C9BCF1000F06DA11B10D
:10507000C2F800A904E0C4F8009901E0C2F80009F0
:10508000C2F81009C2F80839491C8E42E8D800213C
:1050900015E000BF04EB4112D2F800CBBCF1000FC9
:1050A00006DA11B1C2F800AB04E0C4F8009B01E0DD
:1050B000C2F8000BC2F8100BC2F8083B491C8E4224
:1050C000E8D8D4F8101821F48072C4F81028A06130
:1050D0006FF080406061BBF1000F03D1A06940F028
:1050E0001000A061A06909490843A0610C9818B19B
:1050F000A06940F00800A061012F03D1A069044914
:105100000843A0612846BDE8F08F000000383C80CD
:1051100004000040816821F0010181600020704797
:1051200008B500220C490092009B5B1C00938B4247
:105130000AD80369002BF7DA009210220261009A64
:10514000521C00928A4201D9032008BD0269D2068E
:10515000F5D4002008BD0000400D030018B5002361
:105160000D4A0093009C641C009494420CD804697E
:10517000002CF7DA0093202343EA811101610099A2
:10518000491C0091914201D9032018BD016989068B
:10519000F5D4002018BD0000400D030070B5044692
:1051A000C068002520F0C040E060012901D079B13D
:1051B00020E0E06840F00050E0600120FCF790FE45
:1051C00060696D1C10F0010F10D1322DF5D30DE088
:1051D000E06840F08040E0600120FCF781FE6069FB
:1051E0006D1C10F0010F01D0322DF5D3322D01D0FE
:1051F000002070BD012070BDFEE700002DED028B88
:1052000040F6282000F03EFD4FF4967421464FF4FE
:10521000C87000F0DDF94FF47A762146304600F090
:10522000D7F921464FF4C86000F0D2F92A4DDFEDDE
:105230002B8A9FED2B8A28680528FCD2DFE800F036
:10524000030915293F00B0EE680AFBF7F7FB64205D
:1052500032E0B0EE480AFBF7F1FB782000F012FDD7
:10526000B0EE680AFBF7EAFB11E00024B0EE480A52
:10527000FBF7E4FB5A2000F005FDB0EE680AFBF7EF
:10528000DDFB5A2000F0FEFC641C022CEEDB3046F5
:1052900012E00024B0EE480AFBF7D0FB5A2000F0E1
:1052A000F1FCB0EE680AFBF7C9FB5A2000F0EAFCFB
:1052B000641C032CEEDBEAE700F0E4FCBBE7B0EE95
:1052C000480AFBF7BBFB782000F0DCFCB0EE680A74
:1052D000FBF7B4FB7820EFE770000020000000002F
:1052E00000002F459FED5C0AA1F5807105292AD2A7
:1052F000DFE801F0032A518CA500B2F9001000EE9E
:10530000901AF8EEE00A20EE801ADFED540A21EE42
:10531000201A80ED001AB2F9021001EE101AB8EE50
:10532000C11A21EE001A21EE201A80ED011AB2F9FD
:10533000041001EE101AB8EEC11A21EE000A20EE98
:10534000200A80ED020A7047B2F9001000EE901AB0
:10535000F8EEE00A20EE801ADFED410A21EE201A75
:1053600080ED031AB2F9021001EE101AB8EEC11A5C
:1053700021EE001A21EE201A80ED041AB2F9041071
:1053800001EE101AB8EEC11A21EE000A20EE200A32
:1053900080ED050A7047B2F9001000EE901AF8EEA1
:1053A000E00A20EE801AF3EE000A61EE201A9FED6B
:1053B0002D1A61EE811AC0ED061AB2F9021001EE43
:1053C000901AF8EEE11A61EE801A61EEA01A61EE11
:1053D000811AC0ED071AB2F9041001EE901AF8EE26
:1053E000E11A21EE800A20EE200ADFED1F0A20EEEE
:1053F000010A80ED080AB2F9061000EE101AB8EEA4
:10540000C00A80EE201A80ED0E1A7047B2F9001023
:1054100000EE101AB8EEC00A80ED090AB2F90210C7
:1054200000EE101AB8EEC00A80ED0A0AB2F90410B4
:1054300000EE101AB8EEC00A80ED0B0A704792ED2C
:10544000000AB8EEC00A80ED0C0A92ED010AB8EE2F
:10545000C00A80ED0D0A7047000000380000344398
:105460000000FA44CDCC1C410000C8422DE9F84FA1
:105470000025DDE90B74401EDDF828B0C0B2984667
:10548000924689460095022830D8002F2ED0082C4D
:105490002CD8174901EB001006683046FCF7BFF81E
:1054A00058B900213046FBF71BFF01213046FBF7BE
:1054B00017FF02213046FBF713FF0E485FEA090190
:1054C000C0E9008B00D0042181605FEA0A0100D0AE
:1054D0000221C0E9031405756B463A46054930467A
:1054E000FBF733FF002801D0FBF76BFCBDE8F88F1A
:1054F000280000207C0D0020F0B4334E122903D088
:1055000000203070F0BC70470188C1F30A042F49B5
:10551000A4F580640C8042788378D20842EA431272
:10552000C2F30A03A3F580634B808278C5789209A1
:1055300042EA8502057942EA8522C2F30A02A2F50F
:1055400080628A80057947796D0845EAC715C5F3F9
:105550000A05A5F58065CD804779BF090F724779A7
:10556000C7F301174F72C7884F8107898F81478919
:10557000CF81077B0F74477B4F74C7894F82008AA6
:10558000A0F580608882887D401CC0B288753C2868
:1055900003D93C208875012030704FF4A56004F5D4
:1055A000257484420BD803F52573834207D802F58E
:1055B0002572824203D805F525758542A2D9F0BC33
:1055C00018210248FAF79ABE6000002070110020EE
:1055D00000EE100A10B50C46B8EE400AFBF72EFAA2
:1055E000204600F04FFBBDE810409FED020AFBF79C
:1055F00025BA000000000000002807D0012806D0CE
:10560000022806D0032806D04FF0FF307047042050
:105610007047082070470C20704700002DED028B6A
:10562000B7EE008A154DDFED148A154C05F10C0616
:1056300042F210774FF0000894ED000A0F490F482E
:10564000B8EE400A0C31C0EE280AC5ED000A85ED1F
:10565000018A85ED028AFEF7C5FB96EC030AFBF78B
:10566000B1FA2068401C2060B84201D9C4F800801B
:105670000A2000F007FBDFE700401C46BC130020B7
:105680006C000020FBF798FBFBF716FB0020FBF7F4
:105690009BFB40F6AC5000BF00F0F4FA0420FBE79F
:1056A0001CB540F6AC5000F0EDFA4FF400756E1EDC
:1056B00040F2FF290320FFF791F807460220FFF789
:1056C0008DF804460120FFF789F803460020FFF714
:1056D00085F8CDE9004702462946012000F079F817
:1056E0000F20FFF77BF807460E20FFF777F80446F8
:1056F0000D20FFF773F803460C20FFF76FF8CDE994
:10570000004702462946022000F063F8012000F01D
:10571000B9FA0720FFF762F807460620FFF75EF8A0
:1057200004460520FFF75AF803460420FFF756F811
:10573000CDE9004702463146012000F04AF8132027
:10574000FFF74CF807461220FFF748F804461120EF
:10575000FFF744F803461020FFF740F8CDE9004773
:1057600002463146022000F034F8012000F08AFAA7
:105770000B20FFF733F807460A20FFF72FF80446FF
:105780000920FFF72BF803460820FFF727F8CDE99B
:10579000004702464C464946012000F01AF81720FF
:1057A000FFF71CF880461620FFF718F8074615206B
:1057B000FFF714F803461420FFF710F8CDE900783E
:1057C00002462146022000F004F8012000F05AFAB7
:1057D00070E77CB5160A8DF800608DF80120DDE9D0
:1057E00006541A0A8DF802202A0A8DF804208DF832
:1057F0000550220A8DF806208DF803308DF80740F9
:105800006A46FBF797F97CBD9FED040A80ED000A1C
:1058100080ED010A80ED020A7047000000000000E0
:105820009FED0F0AF7EE000A80ED000A80ED010AF5
:1058300080ED020AC0ED030AFFEE000AC0ED040A83
:10584000C0ED050ADFED070A80ED060AC0ED070A84
:1058500080ED080A80ED090A80ED0A0A7047000011
:1058600000000000FC04413E00218180C1800181D4
:10587000817281810160C181704710B52C30FFF7C2
:10588000CFFF2C30FFF7CCFF2C30FFF7C9FF2C30B7
:10589000FFF7C6FF3030FFF7B7FF0021C160E038E7
:1058A00010BD00F065B8A0F201220B2A04D8A0F2C6
:1058B000F510C0B2FEF79ABF7047A0F201200B2886
:1058C00002D8C0B2FEF792BF704700000A460146F8
:1058D0000148FFF707BD0000C41100200A46014639
:1058E0000148FFF7FFBC00008811002010B500F050
:1058F00001F810BD10B500F01DF910BD10B500F095
:1059000001F810BD10B5040007D1012405E0FAF735
:1059100007FF006800B904488047204600F07CF982
:105920000028F4D010BD0000490600080907090E40
:10593000002804DB00F1E02080F80014704700F03C
:105940000F0000F1E02080F8141D70472DE9F041B0
:105950001C4617460E00804607D0054602E0284642
:10596000B0473D442046641EF9D24046BDE8F08170
:1059700010B52DED028BF0EE408A18EE900AB0EED5
:10598000608A20F00040C0F1FF40C00F07D118EE40
:10599000100A20F00040C0F1FF40C00F2BD018EEDD
:1059A000101A18EE900AFAF7C9FD00EE100A10EE70
:1059B000100A6FEAD05010F0FF0F04BFBDEC028B4D
:1059C00010BD18EE900A00F0004110EE100A00F031
:1059D0000040814204BFBDEC028B10BD18EE101ACE
:1059E00010EE100ABDEC028B61F31E0000EE900A6F
:1059F00030EE600A10BD18EE900A4FF07F41B1EB17
:105A0000400F1CBF18EE100A5FEA4000C7D101200A
:105A100000F01EF8BDEC028BBDE81040AFF3008033
:105A2000DFED020A80EEA00A7047000000000000CF
:105A300002E008C8121F08C1002AFAD17047704757
:105A4000002001E001C1121F002AFBD170470000B5
:105A50000149086070470000380100200248002119
:105A60000160001D016070472801002070B50A4DDB
:105A7000022400260820FFF741FFC5E9000428683A
:105A8000641E40F82460FAD12846BDE87040034AFD
:105A90000349FAF74FBE00003C0100200000000857
:105AA000517400080123F02201490248FFF74EBF5C
:105AB0007B5800082815002010B50E48FFF7B0FEEF
:105AC00004232C220C493C30FFF740FFC030FFF785
:105AD000A7FE9FED0A0A002100ED430A00ED420AED
